:020000040000FA
:04000000FEEF17F008
:1006000000001950800B226E19501924286E18AE64
:100610000CEF03F00EEF03F00FEF03F028802850EB
:10062000D8B415EF03F017EF03F02AEF03F02828F2
:10063000D8A41DEF03F01FEF03F027EF03F0000E27
:10064000166E000E176E000E186E000E196E188EC4
:1006500032EF03F0000E166E000E176E000E186ECD
:10066000000E196E1D50800B221A1D501D24276E7E
:100670001CAE3DEF03F03FEF03F040EF03F02780A7
:100680002750D8B446EF03F048EF03F05BEF03F0D8
:100690002728D8A44EEF03F050EF03F058EF03F0F3
:1006A000000E1A6E000E1B6E000E1C6E000E1D6EEC
:1006B0001C8E63EF03F0000E1A6E000E1B6E000E10
:1006C0001C6E000E1D6E2750D8B469EF03F06BEF5F
:1006D00003F073EF03F02850D8A471EF03F073EF29
:1006E00003F07DEF03F0000E166E000E176E000E85
:1006F000186E000E196E13EF05F01C501602F3CFA2
:100700002DF0F4CF2EF02D50236E246A256A266A30
:100710002E50296E2A6A2B6A2C6A1B501702F3CFBF
:100720002DF0F4CF2EF02D502326000E242225226A
:1007300026222E502926000E2A222B222C221A5045
:100740001802F3CF2DF0F4CF2EF02D502326000EFB
:100750002422252226222E502926000E2A222B2250
:100760002C2225C026F024C025F023C024F0236AC3
:100770001A501702F3CF2DF0F4CF2EF02D50232670
:100780002E502422000E2522000E26221B50160277
:10079000F3CF2DF0F4CF2EF02D5023262E5024220F
:1007A000000E2522000E262225C026F024C025F0AA
:1007B00023C024F0236A1A501602F3CF2DF0F4CF91
:1007C0002EF02D5023262E502422000E2522000E1E
:1007D00026221C501702F3CF2DF0F4CF2EF02D500F
:1007E00029262E502A22000E2B22000E2C221B50CE
:1007F0001802F3CF2DF0F4CF2EF02D5029262E50D5
:100800002A22000E2B22000E2C221C501802F3CF9D
:100810002DF0F4CF2EF02D501E6E2E501F6E206A3C
:10082000216A20C021F01FC020F01EC01FF01E6AE8
:100830001E5029261F502A2220502B2221502C22C4
:1008400023C01EF024C01FF025C020F026C021F0D8
:10085000190E30EF04F0D890213220321F321E32B0
:10086000E82E2BEF04F01E5029261F502A2220507C
:100870002B2221502C2225C026F024C025F023C095
:1008800024F0236A275028C01EF01F6A1E26000E7F
:100890001F22820E1E242D6EFF0E1F202E6E66EF6D
:1008A00004F0D89029362A362B362C3626AE5BEF4C
:1008B00004F05DEF04F05EEF04F02980D890233659
:1008C0002436253626362D06D8A02E062BAE6BEF05
:1008D00004F06DEF04F051EF04F0276A26AE73EFD9
:1008E00004F075EF04F099EF04F0FF0E23141E6E70
:1008F000FF0E24141F6EFF0E2514206E7F0E26148B
:10090000216E1E501F1020102110D8B48AEF04F061
:100910008CEF04F090EF04F0010E276E99EF04F0D5
:1009200029A095EF04F097EF04F099EF04F08CEF15
:1009300004F02750D8B49FEF04F0A1EF04F0C5EF06
:1009400004F0010E2926000E2A222B222C222CA094
:10095000ACEF04F0AEEF04F0C5EF04F029C01EF0D8
:100960002AC01FF02BC020F02CC021F021342132EE
:1009700020321F321E321EC029F01FC02AF020C0B4
:100980002BF021C02CF02D4A2E2A2EBED0EF04F0E1
:100990002E5008E12D28D8A0D0EF04F0D2EF04F0BB
:1009A000DCEF04F0000E296E000E2A6E800E2B6E16
:1009B0007F0E2C6E09EF05F02EBEE9EF04F02E50ED
:1009C00006E12D04D8B0E7EF04F0E9EF04F0F4EF0E
:1009D00004F0000E296E000E2A6E000E2B6E000E23
:1009E0002C6E226A09EF05F02DC028F0FF0E2916A3
:1009F000FF0E2A167F0E2B16000E2C1628A003EFD2
:100A000005F005EF05F006EF05F02B8ED8902830A5
:100A10002C6E22502C1229C016F02AC017F02BC0C1
:100A200018F02CC019F01200106E1050D8B41BEF43
:100A300005F01DEF05F03FEF05F00BBE24EF05F0CC
:100A400022EF05F03FEF05F008C00CF009C00DF0F3
:100A50000AC00EF00BC00FF00C1E0D1E0E1E0F1E56
:100A60000C2A000E0D220E220F220CC012F00DC017
:100A700013F00EC014F00FC015F047EF05F008C0DA
:100A800012F009C013F00AC014F00BC015F00850A2
:100A900009100A100B10D8A450EF05F052EF05F022
:100AA0005CEF05F0000E086E000E096E000E0A6E77
:100AB000000E0B6EEDEF05F0960E116E66EF05F071
:100AC000112AD8901532143213321232000E121439
:100AD0000C6E000E13140D6E000E14140E6EFE0E2E
:100AE00015140F6E0C500D100E100F10D8A47BEFC4
:100AF00005F07DEF05F060EF05F08BEF05F0112AB2
:100B0000010E1226000E132214221522D89015323F
:100B1000143213321232000E12140C6E000E131423
:100B20000D6E000E14140E6EFF0E15140F6E0C5089
:100B30000D100E100F10D8A4A0EF05F0A2EF05F0D5
:100B40007FEF05F0AAEF05F01106D89012361336A4
:100B50001436153614BEAFEF05F0B1EF05F0B9EF5E
:100B600005F0020E1160B7EF05F0B9EF05F0A4EF44
:100B700005F011B0BEEF05F0C0EF05F0C1EF05F0D4
:100B8000149ED890113211C00CF00D6A0E6A0F6AD3
:100B90000CC00FF00E6A0D6A0C6A0C5012120D5048
:100BA00013120E5014120F5015121050D8B4DBEF60
:100BB00005F0DDEF05F0E5EF05F00BBEE4EF05F025
:100BC000E2EF05F0E5EF05F0158E12C008F013C056
:100BD00009F014C00AF015C00BF0120031343234A1
:100BE000386E3850D8A4F7EF05F0F9EF05F003EFB1
:100BF00006F0000E2F6E000E306E000E316E000EED
:100C0000326E70EF06F02FC033F030C034F031C0D8
:100C100035F032C036F0200E13EF06F0D8903632A1
:100C2000353234323332E82E0EEF06F03350376E61
:100C3000318EFF0E2F16FF0E3016FF0E3116000EEE
:100C40003216960E385E38BE2AEF06F028EF06F010
:100C500040EF06F03850800A970FD8B032EF06F018
:100C600034EF06F036EF06F0F9EF05F0D8903232A7
:100C7000313230322F32383E36EF06F058EF06F080
:100C80001F0E386446EF06F048EF06F050EF06F00E
:100C9000F9EF05F0D8902F36303631363236380637
:100CA0003850D8A456EF06F058EF06F04AEF06F099
:100CB0003750D8B45EEF06F060EF06F068EF06F04C
:100CC000321E311E301E2F6C000E30223122322295
:100CD0002FC02FF030C030F031C031F032C032F0D0
:100CE0001200460E1A6EB60E1B6EBB0E1C6E400E28
:100CF0001D6E040EC1EC07F001C008F002C009F03F
:100D00000A6A0B6A000E14EC05F008C016F009C060
:100D100017F00AC018F00BC019F001EC03F016C070
:100D20002FF017C030F018C031F019C032F0EEECDF
:100D300005F02FC04DF030C04EF04DC039F04E5090
:100D40003A6E000E066E000E056E390E076E020E2C
:100D5000086E5CEC07F0030E3D6EE80E3C6E3C0640
:100D6000D8A03D063DBEBFEF06F03D5006E13C0475
:100D7000D8B0BDEF06F0BFEF06F0AFEF06F04CC005
:100D800039F0000E066E010E056E390E076E010E6B
:100D9000086E5CEC07F0030E3F6EE80E3E6E3E06FA
:100DA000D8A03F063FBEDFEF06F03F5006E13E040D
:100DB000D8B0DDEF06F0DFEF06F0CFEF06F012005F
:100DC00043EC08F094EC07F071EC06F0000E22EC16
:100DD00007F0406E816A0E0E4018D8A4F2EF06F0BC
:100DE000F4EF06F0F7EF06F04C6AE2EF06F00D0EB6
:100DF0004018D8A4FEEF06F000EF07F004EF07F06C
:100E0000030E4C6EE2EF06F00B0E4018D8A40BEF69
:100E100007F00DEF07F011EF07F0010E4C6EE2EF57
:100E200006F0070E4018D8A418EF07F01AEF07F0E5
:100E30001EEF07F0020E4C6EE2EF06F0E2EF06F056
:100E4000FEEF17F0016E0150D8A429EF07F02BEF49
:100E500007F051EF07F082500F0B0F0AD8B433EFB1
:100E600007F035EF07F042EF07F04B50D8B43BEFF7
:100E700007F03DEF07F042EF07F04B6A82500F0B8F
:100E80005BEF07F082500F0B0F0AD8A44AEF07F070
:100E90004CEF07F04EEF07F0010E4B6E0F0E5BEFBD
:100EA00007F00104D8A457EF07F059EF07F04EEF11
:100EB00007F03EEF07F012000F01436B446B05C0D3
:100EC00001F006C002F0E4EC07F008C045FF460E52
:100ED0000C6E0F0E0D6E000E0F6E000E0E6E7FEF7D
:100EE00007F007500E24D96EDA6A0E500C24E16E1A
:100EF0000F500D20E26EDFCFE7FF0E4A0F2A085099
:100F0000096E0A6A09500E5C0F50800A0B6E0A5077
:100F1000800A0B58D8A08FEF07F091EF07F071EF20
:100F200007F00F0140871200460E1A6EB60E1B6EB8
:100F3000BB0E1C6E400E1D6E040EC1EC07F001C00E
:100F400008F002C009F00A6A0B6A000E14EC05F002
:100F500008C016F009C017F00AC018F00BC019F04D
:100F600001EC03F016C02FF017C030F018C031F0BC
:100F700019C032F0EEEC05F02FC04DF030C04EF04D
:100F80001200076E07C003F0D8900336D8900336DE
:100F9000C250C30B0310C26EC282C2B2D2EF07F0BE
:100FA000D4EF07F0CDEF07F0C350C4CF03F0046ACD
:100FB00003C004F0036A0310056E0450066E05C0FA
:100FC00001F006C002F0120001C003F0070E031684
:100FD000050E046ED8900336042EEAEF07F0035096
:100FE0000F01426F01C003F002C004F0D890043238
:100FF0000332D89004320332D890043203320350C3
:10100000416F1200939493861F0E6F166F8E800EA1
:101010006E18D8A40EEF08F010EF08F007EF08F0F4
:10102000776AE10E706E1B0E716E030E726E0D010B
:10103000D46B1F0E6F166F50606A608A608C12004E
:10104000960EF66E100EF76E000EF86E00EE41F082
:1010500010EE0CF00900F5CFEEFFE550E150FAE19B
:101060004E6A4D6A0001E0EF06F0C08EC09AC0885B
:10107000C096C090C082C094C292C19AC198C46AFE
:10108000C36AC280120094500F09946E35EC08F0C8
:1010900002EC08F01200E721CB6B2D6EEE23EF6F10
:0210A00001034A
:042FFC0020EF08F0CA
:020000040020DA
:08000000FFFFFFFFFFFFFFFF00
:020000040030CA
:0E000000FF071F1FFF8285FF0FC00FE00F409C
:00000001FF
