:020000040000FA
:04000000FEEF17F008
:10272000E12FE62FF52FDC2F936A816A99EC14F0E4
:10273000FCEC13F01200046E000E016E0350DFEC8F
:1027400013F0010E016E0450DFEC13F01200200EA6
:10275000F66E270EF76E000EF86E00EE3AF010EEF1
:1027600008F00900F5CFEEFFE550E150FAE100EE88
:1027700031F0090EEE6AE806FDE1000EF86E000188
:1027800028EF16F06150036E046AD89003360436C1
:10279000D89003360436D890033604366238E842BF
:1027A000070B070B056E066A03500510076E0450F1
:1027B0000610086E07C001F008C002F01200026E99
:1027C00001B0E5EF13F0E8EF13F08282E9EF13F0C8
:1027D000829202C083FF82848294958E828082924C
:1027E0008284829483BEF7EF13F0F9EF13F0F0EFD9
:1027F00013F08290959E1200939493861F0E6F168D
:102800006F8E800E6E18D8A408EF14F00AEF14F043
:1028100001EF14F0776AE10E706E1B0E716E030EFD
:10282000726E0D01D46B1F0E6F166F50606A608A56
:10283000608C1200000E016E0550DFEC13F037EFD4
:1028400014F0010E016E03C0F6FF04C0F7FFF86A32
:10285000050EF76403D00800F55005D0F6CFE1FF70
:10286000F7CFE2FFE750DFEC13F0034A042A03C07E
:10287000F6FF04C0F7FFF86A050EF76403D00800FE
:10288000F55005D0F6CFE1FFF7CFE2FFE7500009A2
:10289000D8A44DEF14F04FEF14F021EF14F0120014
:1028A00060AE55EF14F057EF14F094EF14F0C2EC53
:1028B00013F00950D96EDA6A01C0DEFF02C0DDFFF5
:1028C0000B50D96EDA6A65CFDFFF660E0F6E0F0E02
:1028D000106E000E126E000E116E7DEF14F011508E
:1028E0000F24D96E12501020DA6E0A501124E16EB6
:1028F000E26ADFCFE7FF114A122A0B50D96EDA6A7B
:10290000DF500C6E0D6A0C50115C1250800A0E6E76
:102910000D50800A0E58D8A090EF14F092EF14F0EA
:102920006FEF14F0609EA4900B50D96EDA6ADF6AE4
:102930001200956A9450F80B946E8290C30E036E49
:10294000CD0EE82EFED7032EFCD70000000E016E40
:10295000330EDFEC13F01B0E036E9E0EE82EFED737
:10296000032EFCD700D0000E016E330EDFEC13F007
:10297000A60EE82EFED700D0000E016E330EDFEC5F
:1029800013F000D000D00000000E016E020EDFEC4C
:1029900013F0A60EE82EFED700D0000E016E380E02
:1029A000DFEC13F0A60EE82EFED700D0000E016E6D
:1029B000010EDFEC13F0040E036E3E0EE82EFED780
:1029C000032EFCD7000E016E0C0EDFEC13F0A60EEA
:1029D000E82EFED700D01200066A02BEF4EF14F013
:1029E000F2EF14F0FAEF14F0016C021ED8B0022AD4
:1029F000010E066E04BE01EF15F0FFEF14F005EFB7
:102A000015F0036C041ED8B0042A03500410D8B487
:102A10000CEF15F00EEF15F032EF15F0010E056E0C
:102A200016EF15F0D89003360436052A04AE1BEFD6
:102A300015F01DEF15F012EF15F00350015C045076
:102A40000258D8A026EF15F028EF15F02CEF15F05E
:102A50000350015E0450025AD89004320332052E0E
:102A60001DEF15F00650D8B438EF15F03AEF15F019
:102A70003EEF15F0016C021ED8B0022A01C001F031
:102A800002C002F01200066A04BE4BEF15F049EFD7
:102A900015F051EF15F0036C041ED8B0042A010E96
:102AA000066E02BE58EF15F056EF15F05EEF15F00A
:102AB000016C021ED8B0022A010E061A000E086E22
:102AC000000E076E03500410D8B469EF15F06BEFD9
:102AD00015F093EF15F0010E056E73EF15F0D89019
:102AE00003360436052A04AE78EF15F07AEF15F0B8
:102AF0006FEF15F0D890073608360350015C04508C
:102B00000258D8A086EF15F088EF15F08DEF15F07C
:102B10000350015E0450025A0780D89004320332F9
:102B2000052E7AEF15F00650D8B499EF15F09BEF0B
:102B300015F09FEF15F0076C081ED8B0082A07C0E3
:102B400001F008C002F01200000E126E000E116EAD
:102B500009500A10D8A4AFEF15F0B1EF15F0E0EF6F
:102B600015F00B50D96EDA6A300EDF6E114A122A58
:102B70000B501124D96EDA6ADF6A27EF16F00B507A
:102B80001124D96EDA6A09C001F00AC002F0000E01
:102B9000046E0A0E036EECEC14F00150300FDF6E81
:102BA000114A122A09C001F00AC002F0000E046E98
:102BB0000A0E036E43EC15F001C009F002C00AF0E2
:102BC00009500A10D8A4E7EF15F0E9EF15F0BFEFB0
:102BD00015F00B501124D96EDA6ADF6AFF0E11244A
:102BE0000F6EFF0E1220106E000E126E000E116E90
:102BF00018EF16F00B501124D96EDA6ADF500C6E04
:102C00000C500D6E0E6A0B500F24D96EDA6A0B5001
:102C10001124E16EE26ADFCFE7FF0B500F24D96E7B
:102C2000DA6A0DC0DFFF114A122A0F06D8A010067B
:102C30000F50115C1250800A0C6E1050800A0C5814
:102C4000D8A025EF16F027EF16F0FAEF15F01200D6
:102C500094EC13F0030E306E000E296E000E286EF9
:102C6000F00E036E2F0E046EC00E056E1AEC14F0FB
:102C7000CF0E036E2F0E046E800E056E1AEC14F04C
:102C8000D60E036E2F0E046E8A0E056E1AEC14F02B
:102C9000EB0E036E2F0E046EC80E056E1AEC14F0C8
:102CA0002C0E096E150E0A6E220E0B6E50EC14F0EF
:102CB0002C502D10D8A45FEF16F061EF16F0DBEF6B
:102CC00016F01650136E15502E6E13C02FF020EE16
:102CD00023F0040EDE6AE806FDE22EC009F02FC0E4
:102CE0000AF0230E0B6EA4EC15F02FBE83EF16F046
:102CF000E80E2E5C030E2F58D8B081EF16F083EF4C
:102D000016F095EF16F02FBE8FEF16F02F5009E159
:102D1000650E2E5CD8A08FEF16F091EF16F095EFB0
:102D200016F0200E266ED2EF16F02FBEA1EF16F091
:102D30002F5009E10B0E2E5CD8A0A1EF16F0A3EFE7
:102D400016F0B7EF16F02FBEB1EF16F02F5007E1D7
:102D5000640E2E5CD8B0AFEF16F0B1EF16F0B7EFFF
:102D600016F0200E256E200E266ED2EF16F02FBE26
:102D7000BCEF16F0BEEF16F0D2EF16F02FBECCEF80
:102D800016F02F5007E10A0E2E5CD8B0CAEF16F0ED
:102D9000CCEF16F0D2EF16F0200E246E200E256E2A
:102DA000200E266E230E036E046AC40E056E1AEC06
:102DB00014F075EF17F02C042D10D8A4E2EF16F0E4
:102DC000E4EF16F0F6EF16F015C030F03050020DBB
:102DD000F3503A0FD96EDA6ADECF03F0DDCF04F09C
:102DE000CC0E056E1AEC14F075EF17F0020E2C18CD
:102DF0002D10D8A4FEEF16F000EF17F055EF17F0E6
:102E000015C02AF02B6A000E1E6E000E1F6E000EFB
:102E1000206E000E216E2AC009F02BC00AF01E0E93
:102E20000B6EA4EC15F02BBE21EF17F02B5007E131
:102E3000640E2A5CD8B01FEF17F021EF17F033EFC4
:102E400017F02BBE2DEF17F02B5009E10A0E2A5C6C
:102E5000D8A02DEF17F02FEF17F033EF17F0200E5B
:102E6000206E4CEF17F02BBE38EF17F03AEF17F04B
:102E70004CEF17F02BBE48EF17F02B5007E10A0E6E
:102E80002A5CD8B046EF17F048EF17F04CEF17F078
:102E9000200E1F6E200E206E1E0E036E046A860E1C
:102EA000056E1AEC14F075EF17F0030E2C182D10A8
:102EB000D8A45DEF17F05FEF17F075EF17F0430E32
:102EC0001518D8A466EF17F068EF17F06CEF17F03D
:102ED000180E81126EEF17F0E70E81168F0E036E3B
:102EE00015509BEC13F075EF17F0030E3018D8B4A3
:102EF0007CEF17F07EEF17F087EF17F030501D18BA
:102F0000D8B485EF17F087EF17F088EF17F0816AD4
:102F100030C01DF0284A292AC90E28182910D8A423
:102F200094EF17F096EF17F0A2EF17F03050D8A4F7
:102F30009CEF17F09EEF17F0A2EF17F0030E811A27
:102F400050EF16F0C80E28182910D8A4AAEF17F0D1
:102F5000ACEF17F0B8EF17F03004D8A4B2EF17F0C9
:102F6000B4EF17F0B8EF17F0C00E811A50EF16F05B
:102F7000C80E28182910D8A4C0EF17F0C2EF17F018
:102F8000CFEF17F0020E3018D8A4C9EF17F0CBEF2F
:102F900017F0CFEF17F0C30E811A50EF16F029BECD
:102FA000DBEF17F0295009E1C90E285CD8A0DBEF50
:102FB00017F0DDEF17F0E3EF17F0000E296E000EAB
:102FC000286E50EF16F050EF16F0FEEF17F000539A
:102FD000504545443A00474541523A0020202020C0
:102FE000003C2D2020002D3E202000494E443A0078
:0B2FF00052504D3A003C2D2D3E0000D9
:042FFC00A7EF13F038
:020000040020DA
:08000000FFFFFFFFFFFFFFFF00
:020000040030CA
:0E000000FF071F1FFF8285FF0FC00FE00F409C
:00000001FF
