:020000040000FA
:04000000FEEF17F008
:1006000000001950800B266E195019242D6E18AE5B
:100610000CEF03F00EEF03F00FEF03F02D802D50E1
:10062000D8B415EF03F017EF03F02BEF03F02D28EC
:10063000D8A41DEF03F01FEF03F027EF03F0000E27
:10064000166E000E176E000E186E000E196E188EC4
:10065000196A33EF03F0000E166E000E176E000ECF
:10066000186E000E196E1D50800B261A1D501D2489
:100670002E6E1CAE3EEF03F040EF03F041EF03F0AF
:100680002E802E50D8B447EF03F049EF03F05DEF12
:1006900003F02E28D8A44FEF03F051EF03F059EFE9
:1006A00003F0000E1A6E000E1B6E000E1C6E000E84
:1006B0001D6E1C8E1D6A65EF03F0000E1A6E000E93
:1006C0001B6E000E1C6E000E1D6E1A501B101C10AF
:1006D0001D10D8A46EEF03F070EF03F088EF03F065
:1006E000000E166E000E176E000E186E000E196EBC
:1006F000800E18127F0E19122650191216C016F00D
:1007000017C017F018C018F019C019F0C8EF04F09E
:100710002D50D8A48EEF03F090EF03F09AEF03F082
:10072000000E166E000E176E000E186E000E196E7B
:10073000C8EF04F02E502DC01EF01F6A1E5E000E82
:100740001F5A7F0E1E24276E000E1F20286E16C013
:1007500022F017C023F018C024F019C025F0000EB5
:10076000166E000E176E000E186E000E196E000E3B
:10077000296E000E2A6E000E2B6E000E2C6E2E6A55
:10078000FAEF03F02E50D8B4C8EF03F0CAEF03F02D
:10079000E1EF03F0D8902236233624362536D89060
:1007A00016361736183619362CAED9EF03F0DBEFB4
:1007B00003F0DCEF03F01680D89029362A362B366A
:1007C0002C361A50225C1B5023581C5024581D50A4
:1007D0002558D8A0EEEF03F0F0EF03F0F9EF03F0A7
:1007E0002C8C1A50225E1B50235A1C50245A1D5028
:1007F000255A2E2A190E2E6400EF04F002EF04F0A1
:10080000C2EF03F02250231024102510D8B40BEFB0
:1008100004F00DEF04F025EF04F0298025EF04F03B
:10082000D89016361736183619362CAE1AEF04F053
:100830001CEF04F01DEF04F01680D89029362A36FC
:100840002B362C362706D8A0280618AE2AEF04F03F
:100850002CEF04F010EF04F02E6A2CAE32EF04F00F
:1008600034EF04F058EF04F0FF0E29141E6EFF0E53
:100870002A141F6EFF0E2B14206E7F0E2C14216E77
:100880001E501F1020102110D8B449EF04F04BEF78
:1008900004F04FEF04F0010E2E6E58EF04F016A096
:1008A00054EF04F056EF04F058EF04F04BEF04F06F
:1008B0002E50D8B45EEF04F060EF04F084EF04F043
:1008C000010E1626000E17221822192219A06BEF0E
:1008D00004F06DEF04F084EF04F016C01EF017C0B2
:1008E0001FF018C020F019C021F02134213220322D
:1008F0001F321E321EC016F01FC017F020C018F0A5
:1009000021C019F0274A282A28BE8FEF04F028506A
:1009100008E12728D8A08FEF04F091EF04F09CEFB6
:1009200004F0000E286E2768000E166E000E176E7B
:10093000000E186E000E196E28BEA9EF04F02850A4
:1009400006E12704D8B0A7EF04F0A9EF04F0B6EF52
:1009500004F0000E286E000E276E000E166E000EBC
:10096000176E000E186E000E196E266A27C02DF045
:100970002DA0BDEF04F0BFEF04F0C2EF04F0188E1D
:10098000C3EF04F0189ED8902D30196E7CEF03F061
:100990001200106E1050D8B4D0EF04F0D2EF04F073
:1009A000F4EF04F00BBED9EF04F0D7EF04F0F4EF4E
:1009B00004F008C00CF009C00DF00AC00EF00BC026
:1009C0000FF00C1E0D1E0E1E0F1E0C2A000E0D2207
:1009D0000E220F220CC012F00DC013F00EC014F046
:1009E0000FC015F0FCEF04F008C012F009C013F0BE
:1009F0000AC014F00BC015F0085009100A100B10B3
:100A0000D8A405EF05F007EF05F011EF05F0000E93
:100A1000086E000E096E000E0A6E000E0B6EA2EF3D
:100A200005F0960E116E1BEF05F0112AD8901532C5
:100A3000143213321232000E12140C6E000E131404
:100A40000D6E000E14140E6EFE0E15140F6E0C506B
:100A50000D100E100F10D8A430EF05F032EF05F096
:100A600015EF05F040EF05F0112A010E1226000ED9
:100A7000132214221522D890153214321332123256
:100A8000000E12140C6E000E13140D6E000E1414D2
:100A90000E6EFF0E15140F6E0C500D100E100F1071
:100AA000D8A455EF05F057EF05F034EF05F05FEFF0
:100AB00005F01106D890123613361436153614BECA
:100AC00064EF05F066EF05F06EEF05F0020E1160C1
:100AD0006CEF05F06EEF05F059EF05F011B073EF14
:100AE00005F075EF05F076EF05F0149ED890113201
:100AF00011C00CF00D6A0E6A0F6A0CC00FF00E6A7E
:100B00000D6A0C6A0C5012120D5013120E50141272
:100B10000F5015121050D8B490EF05F092EF05F079
:100B20009AEF05F00BBE99EF05F097EF05F09AEFFD
:100B300005F0158E12C008F013C009F014C00AF0B9
:100B400015C00BF0120031343234386E3850D8A44E
:100B5000ACEF05F0AEEF05F0B8EF05F0000E2F6E2C
:100B6000000E306E000E316E000E326E25EF06F074
:100B70002FC033F030C034F031C035F032C036F021
:100B8000200EC8EF05F0D890363235323432333289
:100B9000E82EC3EF05F03350376E318EFF0E2F165F
:100BA000FF0E3016FF0E3116000E3216960E385E0E
:100BB00038BEDFEF05F0DDEF05F0F5EF05F038505A
:100BC000800A970FD8B0E7EF05F0E9EF05F0EBEFFB
:100BD00005F0AEEF05F0D8903232313230322F329C
:100BE000383EEBEF05F00DEF06F01F0E3864FBEF1B
:100BF00005F0FDEF05F005EF06F0AEEF05F0D8903B
:100C00002F3630363136323638063850D8A40BEF0E
:100C100006F00DEF06F0FFEF05F03750D8B413EFF4
:100C200006F015EF06F01DEF06F0321E311E301EE5
:100C30002F6C000E3022312232222FC02FF030C014
:100C400030F031C031F032C032F0120006EC08F062
:100C5000396A000E3C6E000E3B6E4BC04AF055ECFC
:100C600007F0A2EC06F0000EE3EC06F03A6E0E0E72
:100C70003A18D8A43EEF06F040EF06F063EF06F016
:100C80003CBE4EEF06F03C5007E1060E3B5CD8B090
:100C90004CEF06F04EEF06F063EF06F03950D8B493
:100CA00054EF06F056EF06F059EF06F03B683C684B
:100CB000396A3B4A3C2A3B504B0FD96EDA6ADF5007
:100CC0004A6E2FEF06F00D0E3A18D8A46AEF06F020
:100CD0006CEF06F08BEF06F03CBE77EF06F03C5071
:100CE00008E13B04D8A077EF06F079EF06F08BEF30
:100CF00006F03950D8B47FEF06F081EF06F086EFAA
:100D000006F0000E3C6E010E3B6E396A3B06D8A021
:100D10003C065BEF06F00B0E3A18D8A492EF06F0F3
:100D200094EF06F09EEF06F0010E396E000E3C6E59
:100D3000010E3B6E52C04AF02FEF06F02FEF06F087
:100D4000FEEF17F049C014F0000E066E020E056E9D
:100D5000140E076E010E086E1DEC07F0030E116EE7
:100D6000E80E106E1006D8A0110611BEC2EF06F0F4
:100D7000115006E11004D8B0C0EF06F0C2EF06F043
:100D8000B2EF06F04AC014F0000E066E030E056EB8
:100D9000140E076E010E086E1DEC07F0030E136EA5
:100DA000E80E126E1206D8A0130613BEE2EF06F08C
:100DB000135006E11204D8B0E0EF06F0E2EF06F0BF
:100DC000D2EF06F01200016E0150D8A4EAEF06F04F
:100DD000ECEF06F012EF07F082500F0B0F0AD8B4B9
:100DE000F4EF06F0F6EF06F003EF07F05350D8B437
:100DF000FCEF06F0FEEF06F003EF07F0536A8250B7
:100E00000F0B1CEF07F082500F0B0F0AD8A40BEF4B
:100E100007F00DEF07F00FEF07F0010E536E0F0E06
:100E20001CEF07F00104D8A418EF07F01AEF07F041
:100E30000FEF07F0FFEF06F012000F01436B446B5A
:100E400005C001F006C002F0A3EC07F008C045FFA2
:100E5000460E0C6E0F0E0D6E000E0F6E000E0E6E17
:100E600040EF07F007500E24D96EDA6A0E500C24BA
:100E7000E16E0F500D20E26EDFCFE7FF0E4A0F2A22
:100E80000850096E0A6A09500E5C0F50800A0B6EFA
:100E90000A50800A0B58D8A050EF07F052EF07F025
:100EA00032EF07F00F0140871200140E1A6EAE0EDB
:100EB0001B6E230E1C6E410E1D6E040E80EC07F09F
:100EC00001C008F002C009F00A6A0B6A000EC9EC02
:100ED00004F008C016F009C017F00AC018F00BC0E3
:100EE00019F001EC03F016C02FF017C030F018C055
:100EF00031F019C032F0A3EC05F02F50496E12000A
:100F0000076E07C003F0D8900336D8900336C2505E
:100F1000C30B0310C26EC282C2B291EF07F093EF0F
:100F200007F08CEF07F0C350C4CF03F0046A03C08E
:100F300004F0036A0310056E0450066E05C001F04C
:100F400006C002F0120001C003F0070E0316050EE2
:100F5000046ED8900336042EA9EF07F003500F015A
:100F6000426F01C003F002C004F0D8900432033293
:100F7000D89004320332D890043203320350416FC8
:100F80001200939493861F0E6F166F8E800E6E184C
:100F9000D8A4CDEF07F0CFEF07F0C6EF07F0776AE0
:100FA000E10E706E1B0E716E030E726E0D01D46B2E
:100FB0001F0E6F166F50606A608A608C12001A0EE6
:100FC000F66E100EF76E000EF86E00EE4BF010EE9F
:100FD0000AF00900F5CFEEFFE550E150FAE100EE2E
:100FE0003DF00E0EEE6AE806FDE1000126EF06F088
:100FF000C08EC09AC088C096C090C082C094C29271
:10100000C19AC198C46AC36AC28012000F0E9412BA
:10101000F8EC07F0C1EC07F012004E3132333435F2
:041020005243010135
:042FFC00DFEF07F00C
:020000040020DA
:08000000FFFFFFFFFFFFFFFF00
:020000040030CA
:0E000000FF071F1FFF8285FF0FC00FE00F409C
:00000001FF
